{
  "contractName": "SolnSquareVerifier",
  "abi": [
    {
      "constant": true,
      "inputs": [
        {
          "name": "interfaceId",
          "type": "bytes4"
        }
      ],
      "name": "supportsInterface",
      "outputs": [
        {
          "name": "",
          "type": "bool"
        }
      ],
      "payable": false,
      "stateMutability": "view",
      "type": "function"
    },
    {
      "constant": true,
      "inputs": [],
      "name": "name",
      "outputs": [
        {
          "name": "",
          "type": "string"
        }
      ],
      "payable": false,
      "stateMutability": "view",
      "type": "function"
    },
    {
      "constant": true,
      "inputs": [
        {
          "name": "tokenId",
          "type": "uint256"
        }
      ],
      "name": "getApproved",
      "outputs": [
        {
          "name": "",
          "type": "address"
        }
      ],
      "payable": false,
      "stateMutability": "view",
      "type": "function"
    },
    {
      "constant": false,
      "inputs": [
        {
          "name": "to",
          "type": "address"
        },
        {
          "name": "tokenId",
          "type": "uint256"
        }
      ],
      "name": "approve",
      "outputs": [],
      "payable": false,
      "stateMutability": "nonpayable",
      "type": "function"
    },
    {
      "constant": false,
      "inputs": [
        {
          "name": "newOwner",
          "type": "address"
        }
      ],
      "name": "setOwner",
      "outputs": [],
      "payable": false,
      "stateMutability": "nonpayable",
      "type": "function"
    },
    {
      "constant": false,
      "inputs": [
        {
          "name": "mode",
          "type": "bool"
        }
      ],
      "name": "setPaused",
      "outputs": [],
      "payable": false,
      "stateMutability": "nonpayable",
      "type": "function"
    },
    {
      "constant": true,
      "inputs": [],
      "name": "totalSupply",
      "outputs": [
        {
          "name": "",
          "type": "uint256"
        }
      ],
      "payable": false,
      "stateMutability": "view",
      "type": "function"
    },
    {
      "constant": false,
      "inputs": [
        {
          "name": "from",
          "type": "address"
        },
        {
          "name": "to",
          "type": "address"
        },
        {
          "name": "tokenId",
          "type": "uint256"
        }
      ],
      "name": "transferFrom",
      "outputs": [],
      "payable": false,
      "stateMutability": "nonpayable",
      "type": "function"
    },
    {
      "constant": false,
      "inputs": [
        {
          "name": "_myid",
          "type": "bytes32"
        },
        {
          "name": "_result",
          "type": "string"
        }
      ],
      "name": "__callback",
      "outputs": [],
      "payable": false,
      "stateMutability": "nonpayable",
      "type": "function"
    },
    {
      "constant": true,
      "inputs": [
        {
          "name": "owner",
          "type": "address"
        },
        {
          "name": "index",
          "type": "uint256"
        }
      ],
      "name": "tokenOfOwnerByIndex",
      "outputs": [
        {
          "name": "",
          "type": "uint256"
        }
      ],
      "payable": false,
      "stateMutability": "view",
      "type": "function"
    },
    {
      "constant": false,
      "inputs": [
        {
          "name": "_myid",
          "type": "bytes32"
        },
        {
          "name": "_result",
          "type": "string"
        },
        {
          "name": "_proof",
          "type": "bytes"
        }
      ],
      "name": "__callback",
      "outputs": [],
      "payable": false,
      "stateMutability": "nonpayable",
      "type": "function"
    },
    {
      "constant": false,
      "inputs": [
        {
          "name": "to",
          "type": "address"
        },
        {
          "name": "tokenId",
          "type": "uint256"
        }
      ],
      "name": "mint",
      "outputs": [
        {
          "name": "isCompleted",
          "type": "bool"
        }
      ],
      "payable": false,
      "stateMutability": "nonpayable",
      "type": "function"
    },
    {
      "constant": false,
      "inputs": [
        {
          "name": "from",
          "type": "address"
        },
        {
          "name": "to",
          "type": "address"
        },
        {
          "name": "tokenId",
          "type": "uint256"
        }
      ],
      "name": "safeTransferFrom",
      "outputs": [],
      "payable": false,
      "stateMutability": "nonpayable",
      "type": "function"
    },
    {
      "constant": true,
      "inputs": [
        {
          "name": "index",
          "type": "uint256"
        }
      ],
      "name": "tokenByIndex",
      "outputs": [
        {
          "name": "",
          "type": "uint256"
        }
      ],
      "payable": false,
      "stateMutability": "view",
      "type": "function"
    },
    {
      "constant": true,
      "inputs": [
        {
          "name": "tokenId",
          "type": "uint256"
        }
      ],
      "name": "ownerOf",
      "outputs": [
        {
          "name": "",
          "type": "address"
        }
      ],
      "payable": false,
      "stateMutability": "view",
      "type": "function"
    },
    {
      "constant": true,
      "inputs": [
        {
          "name": "owner",
          "type": "address"
        }
      ],
      "name": "balanceOf",
      "outputs": [
        {
          "name": "",
          "type": "uint256"
        }
      ],
      "payable": false,
      "stateMutability": "view",
      "type": "function"
    },
    {
      "constant": true,
      "inputs": [],
      "name": "getOwner",
      "outputs": [
        {
          "name": "",
          "type": "address"
        }
      ],
      "payable": false,
      "stateMutability": "view",
      "type": "function"
    },
    {
      "constant": true,
      "inputs": [],
      "name": "symbol",
      "outputs": [
        {
          "name": "",
          "type": "string"
        }
      ],
      "payable": false,
      "stateMutability": "view",
      "type": "function"
    },
    {
      "constant": false,
      "inputs": [
        {
          "name": "to",
          "type": "address"
        },
        {
          "name": "approved",
          "type": "bool"
        }
      ],
      "name": "setApprovalForAll",
      "outputs": [],
      "payable": false,
      "stateMutability": "nonpayable",
      "type": "function"
    },
    {
      "constant": true,
      "inputs": [],
      "name": "isPaused",
      "outputs": [
        {
          "name": "",
          "type": "bool"
        }
      ],
      "payable": false,
      "stateMutability": "view",
      "type": "function"
    },
    {
      "constant": false,
      "inputs": [
        {
          "name": "from",
          "type": "address"
        },
        {
          "name": "to",
          "type": "address"
        },
        {
          "name": "tokenId",
          "type": "uint256"
        },
        {
          "name": "_data",
          "type": "bytes"
        }
      ],
      "name": "safeTransferFrom",
      "outputs": [],
      "payable": false,
      "stateMutability": "nonpayable",
      "type": "function"
    },
    {
      "constant": true,
      "inputs": [
        {
          "name": "tokenId",
          "type": "uint256"
        }
      ],
      "name": "tokenURI",
      "outputs": [
        {
          "name": "",
          "type": "string"
        }
      ],
      "payable": false,
      "stateMutability": "view",
      "type": "function"
    },
    {
      "constant": true,
      "inputs": [],
      "name": "baseTokenURI",
      "outputs": [
        {
          "name": "",
          "type": "string"
        }
      ],
      "payable": false,
      "stateMutability": "view",
      "type": "function"
    },
    {
      "constant": true,
      "inputs": [
        {
          "name": "owner",
          "type": "address"
        },
        {
          "name": "operator",
          "type": "address"
        }
      ],
      "name": "isApprovedForAll",
      "outputs": [
        {
          "name": "",
          "type": "bool"
        }
      ],
      "payable": false,
      "stateMutability": "view",
      "type": "function"
    },
    {
      "constant": false,
      "inputs": [
        {
          "name": "newOwner",
          "type": "address"
        }
      ],
      "name": "transferOwnership",
      "outputs": [],
      "payable": false,
      "stateMutability": "nonpayable",
      "type": "function"
    },
    {
      "inputs": [
        {
          "name": "verifierAddress",
          "type": "address"
        },
        {
          "name": "name",
          "type": "string"
        },
        {
          "name": "symbol",
          "type": "string"
        }
      ],
      "payable": false,
      "stateMutability": "nonpayable",
      "type": "constructor"
    },
    {
      "anonymous": false,
      "inputs": [
        {
          "indexed": false,
          "name": "from",
          "type": "address"
        }
      ],
      "name": "AddedSolution",
      "type": "event"
    },
    {
      "anonymous": false,
      "inputs": [
        {
          "indexed": false,
          "name": "id",
          "type": "uint256"
        },
        {
          "indexed": false,
          "name": "from",
          "type": "address"
        }
      ],
      "name": "MintedSolution",
      "type": "event"
    },
    {
      "anonymous": false,
      "inputs": [
        {
          "indexed": false,
          "name": "newToken",
          "type": "uint256"
        },
        {
          "indexed": false,
          "name": "totalToken",
          "type": "uint256"
        }
      ],
      "name": "PushNewToken",
      "type": "event"
    },
    {
      "anonymous": false,
      "inputs": [
        {
          "indexed": true,
          "name": "from",
          "type": "address"
        },
        {
          "indexed": true,
          "name": "to",
          "type": "address"
        },
        {
          "indexed": true,
          "name": "tokenId",
          "type": "uint256"
        }
      ],
      "name": "Transfer",
      "type": "event"
    },
    {
      "anonymous": false,
      "inputs": [
        {
          "indexed": true,
          "name": "owner",
          "type": "address"
        },
        {
          "indexed": true,
          "name": "approved",
          "type": "address"
        },
        {
          "indexed": true,
          "name": "tokenId",
          "type": "uint256"
        }
      ],
      "name": "Approval",
      "type": "event"
    },
    {
      "anonymous": false,
      "inputs": [
        {
          "indexed": true,
          "name": "owner",
          "type": "address"
        },
        {
          "indexed": true,
          "name": "operator",
          "type": "address"
        },
        {
          "indexed": false,
          "name": "approved",
          "type": "bool"
        }
      ],
      "name": "ApprovalForAll",
      "type": "event"
    },
    {
      "anonymous": false,
      "inputs": [],
      "name": "Paused",
      "type": "event"
    },
    {
      "anonymous": false,
      "inputs": [],
      "name": "Unpaused",
      "type": "event"
    },
    {
      "anonymous": false,
      "inputs": [
        {
          "indexed": false,
          "name": "previousOwner",
          "type": "address"
        },
        {
          "indexed": false,
          "name": "newOwner",
          "type": "address"
        }
      ],
      "name": "OwnerShipTransfer",
      "type": "event"
    },
    {
      "constant": false,
      "inputs": [
        {
          "name": "a",
          "type": "uint256[2]"
        },
        {
          "name": "b",
          "type": "uint256[2][2]"
        },
        {
          "name": "c",
          "type": "uint256[2]"
        },
        {
          "name": "inputs",
          "type": "uint256[2]"
        }
      ],
      "name": "addSolution",
      "outputs": [],
      "payable": false,
      "stateMutability": "nonpayable",
      "type": "function"
    },
    {
      "constant": false,
      "inputs": [
        {
          "name": "inputs",
          "type": "uint256[2]"
        },
        {
          "name": "to",
          "type": "address"
        }
      ],
      "name": "mintNewNFT",
      "outputs": [],
      "payable": false,
      "stateMutability": "nonpayable",
      "type": "function"
    }
  ],
  "bytecode": "0x60806040523480156200001157600080fd5b50604051620044db380380620044db833981018060405260608110156200003757600080fd5b810190808051906020019092919080516401000000008111156200005a57600080fd5b828101905060208101848111156200007157600080fd5b81518560018202830111640100000000821117156200008f57600080fd5b50509291906020018051640100000000811115620000ac57600080fd5b82810190506020810184811115620000c357600080fd5b8151856001820283011164010000000082111715620000e157600080fd5b505092919050505081818181606060405190810160405280603f81526020016200449c603f91396200012233620002ca640100000000026401000000009004565b60008060146101000a81548160ff021916908315150217905550620001796301ffc9a77c010000000000000000000000000000000000000000000000000000000002620005e7640100000000026401000000009004565b620001b66380ac58cd7c010000000000000000000000000000000000000000000000000000000002620005e7640100000000026401000000009004565b620001f363780e9d637c010000000000000000000000000000000000000000000000000000000002620005e7640100000000026401000000009004565b82600f90805190602001906200020b929190620006a5565b50816010908051906020019062000224929190620006a5565b5080601190805190602001906200023d929190620006a5565b506200027b635b5e139f7c010000000000000000000000000000000000000000000000000000000002620005e7640100000000026401000000009004565b505050505082601360006101000a81548173ffffffffffffffffffffffffffffffffffffffff021916908373ffffffffffffffffffffffffffffffffffffffff16021790555050505062000754565b600073ffffffffffffffffffffffffffffffffffffffff166000809054906101000a900473ffffffffffffffffffffffffffffffffffffffff1673ffffffffffffffffffffffffffffffffffffffff1614806200037357506000809054906101000a900473ffffffffffffffffffffffffffffffffffffffff1673ffffffffffffffffffffffffffffffffffffffff163373ffffffffffffffffffffffffffffffffffffffff16145b1515620003e8576040517f08c379a000000000000000000000000000000000000000000000000000000000815260040180806020018281038252601c8152602001807f43616c6c6572206973206e6f7420636f6e7472616374206f776e65720000000081525060200191505060405180910390fd5b600073ffffffffffffffffffffffffffffffffffffffff168173ffffffffffffffffffffffffffffffffffffffff16141515156200048e576040517f08c379a00000000000000000000000000000000000000000000000000000000081526004018080602001828103825260208152602001807f4e6577206f776e6572206d7573742062652061207265616c206164647265737381525060200191505060405180910390fd5b8073ffffffffffffffffffffffffffffffffffffffff166000809054906101000a900473ffffffffffffffffffffffffffffffffffffffff1673ffffffffffffffffffffffffffffffffffffffff16141515620005e45760008060009054906101000a900473ffffffffffffffffffffffffffffffffffffffff1690507f39aa7b32e39346e4d63b7af2df2424277168303b5e5a6e01b6b1a014d501a7ab8183604051808373ffffffffffffffffffffffffffffffffffffffff1673ffffffffffffffffffffffffffffffffffffffff1681526020018273ffffffffffffffffffffffffffffffffffffffff1673ffffffffffffffffffffffffffffffffffffffff1681526020019250505060405180910390a1816000806101000a81548173ffffffffffffffffffffffffffffffffffffffff021916908373ffffffffffffffffffffffffffffffffffffffff160217905550505b50565b63ffffffff7c010000000000000000000000000000000000000000000000000000000002817bffffffffffffffffffffffffffffffffffffffffffffffffffffffff1916141515156200063957600080fd5b6001806000837bffffffffffffffffffffffffffffffffffffffffffffffffffffffff19167bffffffffffffffffffffffffffffffffffffffffffffffffffffffff1916815260200190815260200160002060006101000a81548160ff02191690831515021790555050565b828054600181600116156101000203166002900490600052602060002090601f016020900481019282601f10620006e857805160ff191683800117855562000719565b8280016001018555821562000719579182015b8281111562000718578251825591602001919060010190620006fb565b5b5090506200072891906200072c565b5090565b6200075191905b808211156200074d57600081600090555060010162000733565b5090565b90565b613d3880620007646000396000f3fe608060405234801561001057600080fd5b50600436106101c6576000357c0100000000000000000000000000000000000000000000000000000000900480634f6ccce711610116578063b88d4fde116100b4578063e6bcd7451161008e578063e6bcd74514610c3c578063e985e9c514610c8a578063f2fde38b14610d06578063f76b443114610d4a576101c6565b8063b88d4fde14610a0d578063c87b56dd14610b12578063d547cfb714610bb9576101c6565b8063893d20e8116100f0578063893d20e8146108ce57806395d89b4114610918578063a22cb4651461099b578063b187bd26146109eb576101c6565b80634f6ccce7146107c65780636352211e1461080857806370a0823114610876576101c6565b806318160ddd116101835780632f745c591161015d5780632f745c591461053457806338bbfa501461059657806340c10f19146106f257806342842e0e14610758576101c6565b806318160ddd146103e357806323b872dd1461040157806327dc297e1461046f576101c6565b806301ffc9a7146101cb57806306fdde0314610230578063081812fc146102b3578063095ea7b31461032157806313af40351461036f57806316c38b3c146103b3575b600080fd5b610216600480360360208110156101e157600080fd5b8101908080357bffffffffffffffffffffffffffffffffffffffffffffffffffffffff19169060200190929190505050610eab565b604051808215151515815260200191505060405180910390f35b610238610f13565b6040518080602001828103825283818151815260200191508051906020019080838360005b8381101561027857808201518184015260208101905061025d565b50505050905090810190601f1680156102a55780820380516001836020036101000a031916815260200191505b509250505060405180910390f35b6102df600480360360208110156102c957600080fd5b8101908080359060200190929190505050610fb5565b604051808273ffffffffffffffffffffffffffffffffffffffff1673ffffffffffffffffffffffffffffffffffffffff16815260200191505060405180910390f35b61036d6004803603604081101561033757600080fd5b81019080803573ffffffffffffffffffffffffffffffffffffffff1690602001909291908035906020019092919050505061106f565b005b6103b16004803603602081101561038557600080fd5b81019080803573ffffffffffffffffffffffffffffffffffffffff16906020019092919050505061124c565b005b6103e1600480360360208110156103c957600080fd5b81019080803515159060200190929190505050611374565b005b6103eb61153d565b6040518082815260200191505060405180910390f35b61046d6004803603606081101561041757600080fd5b81019080803573ffffffffffffffffffffffffffffffffffffffff169060200190929190803573ffffffffffffffffffffffffffffffffffffffff1690602001909291908035906020019092919050505061154a565b005b6105326004803603604081101561048557600080fd5b8101908080359060200190929190803590602001906401000000008111156104ac57600080fd5b8201836020820111156104be57600080fd5b803590602001918460018302840111640100000000831117156104e057600080fd5b91908080601f016020809104026020016040519081016040528093929190818152602001838380828437600081840152601f19601f82011690508083019250505050505050919291929050505061156f565b005b6105806004803603604081101561054a57600080fd5b81019080803573ffffffffffffffffffffffffffffffffffffffff169060200190929190803590602001909291905050506115b2565b6040518082815260200191505060405180910390f35b6106f0600480360360608110156105ac57600080fd5b8101908080359060200190929190803590602001906401000000008111156105d357600080fd5b8201836020820111156105e557600080fd5b8035906020019184600183028401116401000000008311171561060757600080fd5b91908080601f016020809104026020016040519081016040528093929190818152602001838380828437600081840152601f19601f8201169050808301925050505050505091929192908035906020019064010000000081111561066a57600080fd5b82018360208201111561067c57600080fd5b8035906020019184600183028401116401000000008311171561069e57600080fd5b91908080601f016020809104026020016040519081016040528093929190818152602001838380828437600081840152601f19601f820116905080830192505050505050509192919290505050611629565b005b61073e6004803603604081101561070857600080fd5b81019080803573ffffffffffffffffffffffffffffffffffffffff1690602001909291908035906020019092919050505061162e565b604051808215151515815260200191505060405180910390f35b6107c46004803603606081101561076e57600080fd5b81019080803573ffffffffffffffffffffffffffffffffffffffff169060200190929190803573ffffffffffffffffffffffffffffffffffffffff16906020019092919080359060200190929190505050611768565b005b6107f2600480360360208110156107dc57600080fd5b8101908080359060200190929190505050611789565b6040518082815260200191505060405180910390f35b6108346004803603602081101561081e57600080fd5b81019080803590602001909291905050506117c1565b604051808273ffffffffffffffffffffffffffffffffffffffff1673ffffffffffffffffffffffffffffffffffffffff16815260200191505060405180910390f35b6108b86004803603602081101561088c57600080fd5b81019080803573ffffffffffffffffffffffffffffffffffffffff1690602001909291905050506117fe565b6040518082815260200191505060405180910390f35b6108d661184e565b604051808273ffffffffffffffffffffffffffffffffffffffff1673ffffffffffffffffffffffffffffffffffffffff16815260200191505060405180910390f35b610920611877565b6040518080602001828103825283818151815260200191508051906020019080838360005b83811015610960578082015181840152602081019050610945565b50505050905090810190601f16801561098d5780820380516001836020036101000a031916815260200191505b509250505060405180910390f35b6109e9600480360360408110156109b157600080fd5b81019080803573ffffffffffffffffffffffffffffffffffffffff169060200190929190803515159060200190929190505050611919565b005b6109f3611a55565b604051808215151515815260200191505060405180910390f35b610b1060048036036080811015610a2357600080fd5b81019080803573ffffffffffffffffffffffffffffffffffffffff169060200190929190803573ffffffffffffffffffffffffffffffffffffffff1690602001909291908035906020019092919080359060200190640100000000811115610a8a57600080fd5b820183602082011115610a9c57600080fd5b80359060200191846001830284011164010000000083111715610abe57600080fd5b91908080601f016020809104026020016040519081016040528093929190818152602001838380828437600081840152601f19601f820116905080830192505050505050509192919290505050611a6b565b005b610b3e60048036036020811015610b2857600080fd5b8101908080359060200190929190505050611a93565b6040518080602001828103825283818151815260200191508051906020019080838360005b83811015610b7e578082015181840152602081019050610b63565b50505050905090810190601f168015610bab5780820380516001836020036101000a031916815260200191505b509250505060405180910390f35b610bc1611b5c565b6040518080602001828103825283818151815260200191508051906020019080838360005b83811015610c01578082015181840152602081019050610be6565b50505050905090810190601f168015610c2e5780820380516001836020036101000a031916815260200191505b509250505060405180910390f35b610c8860048036036060811015610c5257600080fd5b8101908080604001909192919290803573ffffffffffffffffffffffffffffffffffffffff169060200190929190505050611bfe565b005b610cec60048036036040811015610ca057600080fd5b81019080803573ffffffffffffffffffffffffffffffffffffffff169060200190929190803573ffffffffffffffffffffffffffffffffffffffff169060200190929190505050611f56565b604051808215151515815260200191505060405180910390f35b610d4860048036036020811015610d1c57600080fd5b81019080803573ffffffffffffffffffffffffffffffffffffffff169060200190929190505050611fea565b005b610ea96004803603610140811015610d6157600080fd5b8101908080604001906002806020026040519081016040528092919082600260200280828437600081840152601f19601f82011690508083019250505050505091929192908060800190600280602002604051908101604052809291906000905b82821015610e16578382604002016002806020026040519081016040528092919082600260200280828437600081840152601f19601f82011690508083019250505050505081526020019060010190610dc2565b50505050919291929080604001906002806020026040519081016040528092919082600260200280828437600081840152601f19601f820116905080830192505050505050919291929080604001906002806020026040519081016040528092919082600260200280828437600081840152601f19601f8201169050808301925050505050509192919290505050612303565b005b600060016000837bffffffffffffffffffffffffffffffffffffffffffffffffffffffff19167bffffffffffffffffffffffffffffffffffffffffffffffffffffffff1916815260200190815260200160002060009054906101000a900460ff169050919050565b6060600f8054600181600116156101000203166002900480601f016020809104026020016040519081016040528092919081815260200182805460018160011615610100020316600290048015610fab5780601f10610f8057610100808354040283529160200191610fab565b820191906000526020600020905b815481529060010190602001808311610f8e57829003601f168201915b5050505050905090565b6000610fc082612834565b1515611034576040517f08c379a00000000000000000000000000000000000000000000000000000000081526004018080602001828103825260138152602001807f546f6b656e20646f65736e27742065786973740000000000000000000000000081525060200191505060405180910390fd5b6003600083815260200190815260200160002060009054906101000a900473ffffffffffffffffffffffffffffffffffffffff169050919050565b600061107a826117c1565b90508273ffffffffffffffffffffffffffffffffffffffff168173ffffffffffffffffffffffffffffffffffffffff1614151515611103576040517f08c379a000000000000000000000000000000000000000000000000000000000815260040180806020018281038252602a815260200180613c70602a913960400191505060405180910390fd5b8073ffffffffffffffffffffffffffffffffffffffff163373ffffffffffffffffffffffffffffffffffffffff16148061114357506111428133611f56565b5b151561119a576040517f08c379a0000000000000000000000000000000000000000000000000000000008152600401808060200182810382526047815260200180613c9a6047913960600191505060405180910390fd5b826003600084815260200190815260200160002060006101000a81548173ffffffffffffffffffffffffffffffffffffffff021916908373ffffffffffffffffffffffffffffffffffffffff160217905550818373ffffffffffffffffffffffffffffffffffffffff168273ffffffffffffffffffffffffffffffffffffffff167f8c5be1e5ebec7d5bd14f71427d1e84f3dd0314c0f7b2291e5b200ac8c7c3b92560405160405180910390a4505050565b600073ffffffffffffffffffffffffffffffffffffffff166000809054906101000a900473ffffffffffffffffffffffffffffffffffffffff1673ffffffffffffffffffffffffffffffffffffffff1614806112f457506000809054906101000a900473ffffffffffffffffffffffffffffffffffffffff1673ffffffffffffffffffffffffffffffffffffffff163373ffffffffffffffffffffffffffffffffffffffff16145b1515611368576040517f08c379a000000000000000000000000000000000000000000000000000000000815260040180806020018281038252601c8152602001807f43616c6c6572206973206e6f7420636f6e7472616374206f776e65720000000081525060200191505060405180910390fd5b61137181611fea565b50565b600073ffffffffffffffffffffffffffffffffffffffff166000809054906101000a900473ffffffffffffffffffffffffffffffffffffffff1673ffffffffffffffffffffffffffffffffffffffff16148061141c57506000809054906101000a900473ffffffffffffffffffffffffffffffffffffffff1673ffffffffffffffffffffffffffffffffffffffff163373ffffffffffffffffffffffffffffffffffffffff16145b1515611490576040517f08c379a000000000000000000000000000000000000000000000000000000000815260040180806020018281038252601c8152602001807f43616c6c6572206973206e6f7420636f6e7472616374206f776e65720000000081525060200191505060405180910390fd5b801515600060149054906101000a900460ff16151514151561153a5780600060146101000a81548160ff021916908315150217905550600060149054906101000a900460ff161561150c577f9e87fac88ff661f02d44f95383c817fece4bce600a3dab7a54406878b965e75260405160405180910390a1611539565b7fa45f47fdea8a1efdd9029a5691c7f759c32b7c698632b563573e155625d1693360405160405180910390a15b5b50565b6000600880549050905090565b61155433826128a6565b151561155f57600080fd5b61156a83838361293b565b505050565b6115ae828260006040519080825280601f01601f1916602001820160405280156115a85781602001600182028038833980820191505090505b50611629565b5050565b60006115bd836117fe565b821015156115ca57600080fd5b600660008473ffffffffffffffffffffffffffffffffffffffff1673ffffffffffffffffffffffffffffffffffffffff1681526020019081526020016000208281548110151561161657fe5b9060005260206000200154905092915050565b505050565b60008073ffffffffffffffffffffffffffffffffffffffff166000809054906101000a900473ffffffffffffffffffffffffffffffffffffffff1673ffffffffffffffffffffffffffffffffffffffff1614806116d757506000809054906101000a900473ffffffffffffffffffffffffffffffffffffffff1673ffffffffffffffffffffffffffffffffffffffff163373ffffffffffffffffffffffffffffffffffffffff16145b151561174b576040517f08c379a000000000000000000000000000000000000000000000000000000000815260040180806020018281038252601c8152602001807f43616c6c6572206973206e6f7420636f6e7472616374206f776e65720000000081525060200191505060405180910390fd5b611755838361295f565b61175e82612980565b6001905092915050565b6117848383836020604051908101604052806000815250611a6b565b505050565b600061179361153d565b821015156117a057600080fd5b6008828154811015156117af57fe5b90600052602060002001549050919050565b60006002600083815260200190815260200160002060009054906101000a900473ffffffffffffffffffffffffffffffffffffffff169050919050565b6000611847600460008473ffffffffffffffffffffffffffffffffffffffff1673ffffffffffffffffffffffffffffffffffffffff168152602001908152602001600020612ab6565b9050919050565b60008060009054906101000a900473ffffffffffffffffffffffffffffffffffffffff16905090565b606060108054600181600116156101000203166002900480601f01602080910402602001604051908101604052809291908181526020018280546001816001161561010002031660029004801561190f5780601f106118e45761010080835404028352916020019161190f565b820191906000526020600020905b8154815290600101906020018083116118f257829003601f168201915b5050505050905090565b3373ffffffffffffffffffffffffffffffffffffffff168273ffffffffffffffffffffffffffffffffffffffff161415151561195457600080fd5b80600560003373ffffffffffffffffffffffffffffffffffffffff1673ffffffffffffffffffffffffffffffffffffffff16815260200190815260200160002060008473ffffffffffffffffffffffffffffffffffffffff1673ffffffffffffffffffffffffffffffffffffffff16815260200190815260200160002060006101000a81548160ff0219169083151502179055508173ffffffffffffffffffffffffffffffffffffffff163373ffffffffffffffffffffffffffffffffffffffff167f17307eab39ab6107e8899845ad3d59bd9653f200f220920489ca2b5937696c3183604051808215151515815260200191505060405180910390a35050565b60008060149054906101000a900460ff16905090565b611a7684848461154a565b611a8284848484612ac4565b1515611a8d57600080fd5b50505050565b6060611a9e82612834565b1515611aa957600080fd5b601260008381526020019081526020016000208054600181600116156101000203166002900480601f016020809104026020016040519081016040528092919081815260200182805460018160011615610100020316600290048015611b505780601f10611b2557610100808354040283529160200191611b50565b820191906000526020600020905b815481529060010190602001808311611b3357829003601f168201915b50505050509050919050565b606060118054600181600116156101000203166002900480601f016020809104026020016040519081016040528092919081815260200182805460018160011615610100020316600290048015611bf45780601f10611bc957610100808354040283529160200191611bf4565b820191906000526020600020905b815481529060010190602001808311611bd757829003601f168201915b5050505050905090565b6000826000600281101515611c0f57fe5b6020020135836001600281101515611c2357fe5b602002013560405160200180838152602001828152602001925050506040516020818303038152906040528051906020012090506000601560008381526020019081526020016000209050600073ffffffffffffffffffffffffffffffffffffffff168160020160009054906101000a900473ffffffffffffffffffffffffffffffffffffffff1673ffffffffffffffffffffffffffffffffffffffff1614151515611d37576040517f08c379a00000000000000000000000000000000000000000000000000000000081526004018080602001828103825260128152602001807f536f6c7574696f6e204e6f74204578697374000000000000000000000000000081525060200191505060405180910390fd5b8060020160149054906101000a900460ff16151515611dbe576040517f08c379a00000000000000000000000000000000000000000000000000000000081526004018080602001828103825260138152602001807f536f6c7574696f6e20576173204d696e7465640000000000000000000000000081525060200191505060405180910390fd5b3373ffffffffffffffffffffffffffffffffffffffff168160020160009054906101000a900473ffffffffffffffffffffffffffffffffffffffff1673ffffffffffffffffffffffffffffffffffffffff16141515611e85576040517f08c379a00000000000000000000000000000000000000000000000000000000081526004018080602001828103825260208152602001807f596f7520646964206e6f7420637265617465207468697320736f6c7574696f6e81525060200191505060405180910390fd5b60018160020160146101000a81548160ff021916908315150217905550611eb083826001015461295f565b611ebd8160010154612980565b7fa559673d1244980f99b73da51a667e2aea888c32fab5655ee99ed0b41399688b81600101548260020160009054906101000a900473ffffffffffffffffffffffffffffffffffffffff16604051808381526020018273ffffffffffffffffffffffffffffffffffffffff1673ffffffffffffffffffffffffffffffffffffffff1681526020019250505060405180910390a150505050565b6000600560008473ffffffffffffffffffffffffffffffffffffffff1673ffffffffffffffffffffffffffffffffffffffff16815260200190815260200160002060008373ffffffffffffffffffffffffffffffffffffffff1673ffffffffffffffffffffffffffffffffffffffff16815260200190815260200160002060009054906101000a900460ff16905092915050565b600073ffffffffffffffffffffffffffffffffffffffff166000809054906101000a900473ffffffffffffffffffffffffffffffffffffffff1673ffffffffffffffffffffffffffffffffffffffff16148061209257506000809054906101000a900473ffffffffffffffffffffffffffffffffffffffff1673ffffffffffffffffffffffffffffffffffffffff163373ffffffffffffffffffffffffffffffffffffffff16145b1515612106576040517f08c379a000000000000000000000000000000000000000000000000000000000815260040180806020018281038252601c8152602001807f43616c6c6572206973206e6f7420636f6e7472616374206f776e65720000000081525060200191505060405180910390fd5b600073ffffffffffffffffffffffffffffffffffffffff168173ffffffffffffffffffffffffffffffffffffffff16141515156121ab576040517f08c379a00000000000000000000000000000000000000000000000000000000081526004018080602001828103825260208152602001807f4e6577206f776e6572206d7573742062652061207265616c206164647265737381525060200191505060405180910390fd5b8073ffffffffffffffffffffffffffffffffffffffff166000809054906101000a900473ffffffffffffffffffffffffffffffffffffffff1673ffffffffffffffffffffffffffffffffffffffff161415156123005760008060009054906101000a900473ffffffffffffffffffffffffffffffffffffffff1690507f39aa7b32e39346e4d63b7af2df2424277168303b5e5a6e01b6b1a014d501a7ab8183604051808373ffffffffffffffffffffffffffffffffffffffff1673ffffffffffffffffffffffffffffffffffffffff1681526020018273ffffffffffffffffffffffffffffffffffffffff1673ffffffffffffffffffffffffffffffffffffffff1681526020019250505060405180910390a1816000806101000a81548173ffffffffffffffffffffffffffffffffffffffff021916908373ffffffffffffffffffffffffffffffffffffffff160217905550505b50565b600081600060028110151561231457fe5b602002015182600160028110151561232857fe5b602002015160405160200180838152602001828152602001925050506040516020818303038152906040528051906020012090506015600082815260200190815260200160002060000160009054906101000a900460ff161515156123f5576040517f08c379a00000000000000000000000000000000000000000000000000000000081526004018080602001828103825260128152602001807f536f6c7574696f6e20776173206164646564000000000000000000000000000081525060200191505060405180910390fd5b601360009054906101000a900473ffffffffffffffffffffffffffffffffffffffff1673ffffffffffffffffffffffffffffffffffffffff1663621e9ec0868686866040518563ffffffff167c01000000000000000000000000000000000000000000000000000000000281526004018085600260200280838360005b8381101561248d578082015181840152602081019050612472565b505050509050018460026000925b818410156124e15782846020020151600260200280838360005b838110156124d05780820151818401526020810190506124b5565b50505050905001926001019261249b565b9250505083600260200280838360005b8381101561250c5780820151818401526020810190506124f1565b5050505090500182600260200280838360005b8381101561253a57808201518184015260208101905061251f565b5050505090500194505050505060206040518083038186803b15801561255f57600080fd5b505afa158015612573573d6000803e3d6000fd5b505050506040513d602081101561258957600080fd5b8101908080519060200190929190505050151561260e576040517f08c379a000000000000000000000000000000000000000000000000000000000815260040180806020018281038252601a8152602001807f536f6c7574696f6e20776173207665726966696564206661696c00000000000081525060200191505060405180910390fd5b612616613b02565b60806040519081016040528060011515815260200160148054905081526020013373ffffffffffffffffffffffffffffffffffffffff168152602001600015158152509050806015600084815260200190815260200160002060008201518160000160006101000a81548160ff0219169083151502179055506020820151816001015560408201518160020160006101000a81548173ffffffffffffffffffffffffffffffffffffffff021916908373ffffffffffffffffffffffffffffffffffffffff16021790555060608201518160020160146101000a81548160ff0219169083151502179055509050506014819080600181540180825580915050906001820390600052602060002090600302016000909192909190915060008201518160000160006101000a81548160ff0219169083151502179055506020820151816001015560408201518160020160006101000a81548173ffffffffffffffffffffffffffffffffffffffff021916908373ffffffffffffffffffffffffffffffffffffffff16021790555060608201518160020160146101000a81548160ff0219169083151502179055505050507f273ffd9abb5cb6ae46432e25554f5bf273838714c6b8853737e46325ab2e0d688160400151604051808273ffffffffffffffffffffffffffffffffffffffff1673ffffffffffffffffffffffffffffffffffffffff16815260200191505060405180910390a1505050505050565b6000806002600084815260200190815260200160002060009054906101000a900473ffffffffffffffffffffffffffffffffffffffff169050600073ffffffffffffffffffffffffffffffffffffffff168173ffffffffffffffffffffffffffffffffffffffff161415915050919050565b6000806128b2836117c1565b90508073ffffffffffffffffffffffffffffffffffffffff168473ffffffffffffffffffffffffffffffffffffffff16148061292157508373ffffffffffffffffffffffffffffffffffffffff1661290984610fb5565b73ffffffffffffffffffffffffffffffffffffffff16145b8061293257506129318185611f56565b5b91505092915050565b612946838383612ce7565b6129508382612f46565b61295a82826130ea565b505050565b61296982826131b1565b61297382826130ea565b61297c816133cd565b5050565b61298981612834565b15156129e0576040517f08c379a0000000000000000000000000000000000000000000000000000000008152600401808060200182810382526027815260200180613c496027913960400191505060405180910390fd5b612a8c60118054600181600116156101000203166002900480601f016020809104026020016040519081016040528092919081815260200182805460018160011615610100020316600290048015612a795780601f10612a4e57610100808354040283529160200191612a79565b820191906000526020600020905b815481529060010190602001808311612a5c57829003601f168201915b5050505050612a8783613419565b613572565b601260008381526020019081526020016000209080519060200190612ab2929190613b45565b5050565b600081600001549050919050565b6000612ae58473ffffffffffffffffffffffffffffffffffffffff166135b9565b1515612af45760019050612cdf565b60008473ffffffffffffffffffffffffffffffffffffffff1663150b7a02338887876040518563ffffffff167c0100000000000000000000000000000000000000000000000000000000028152600401808573ffffffffffffffffffffffffffffffffffffffff1673ffffffffffffffffffffffffffffffffffffffff1681526020018473ffffffffffffffffffffffffffffffffffffffff1673ffffffffffffffffffffffffffffffffffffffff16815260200183815260200180602001828103825283818151815260200191508051906020019080838360005b83811015612beb578082015181840152602081019050612bd0565b50505050905090810190601f168015612c185780820380516001836020036101000a031916815260200191505b5095505050505050602060405180830381600087803b158015612c3a57600080fd5b505af1158015612c4e573d6000803e3d6000fd5b505050506040513d6020811015612c6457600080fd5b8101908080519060200190929190505050905063150b7a027c0100000000000000000000000000000000000000000000000000000000027bffffffffffffffffffffffffffffffffffffffffffffffffffffffff1916817bffffffffffffffffffffffffffffffffffffffffffffffffffffffff1916149150505b949350505050565b8273ffffffffffffffffffffffffffffffffffffffff16612d07826117c1565b73ffffffffffffffffffffffffffffffffffffffff16141515612d75576040517f08c379a000000000000000000000000000000000000000000000000000000000815260040180806020018281038252602c815260200180613ce1602c913960400191505060405180910390fd5b600073ffffffffffffffffffffffffffffffffffffffff168273ffffffffffffffffffffffffffffffffffffffff1614151515612dfd576040517f08c379a0000000000000000000000000000000000000000000000000000000008152600401808060200182810382526032815260200180613c176032913960400191505060405180910390fd5b612e06816135cc565b612e4d600460008573ffffffffffffffffffffffffffffffffffffffff1673ffffffffffffffffffffffffffffffffffffffff16815260200190815260200160002061368c565b612e94600460008473ffffffffffffffffffffffffffffffffffffffff1673ffffffffffffffffffffffffffffffffffffffff1681526020019081526020016000206136af565b816002600083815260200190815260200160002060006101000a81548173ffffffffffffffffffffffffffffffffffffffff021916908373ffffffffffffffffffffffffffffffffffffffff160217905550808273ffffffffffffffffffffffffffffffffffffffff168473ffffffffffffffffffffffffffffffffffffffff167fddf252ad1be2c89b69c2b068fc378daa952ba7f163c4a11628f55a4df523b3ef60405160405180910390a4505050565b6000612f9e6001600660008673ffffffffffffffffffffffffffffffffffffffff1673ffffffffffffffffffffffffffffffffffffffff168152602001908152602001600020805490506136c590919063ffffffff16565b90506000600760008481526020019081526020016000205490508181141515613091576000600660008673ffffffffffffffffffffffffffffffffffffffff1673ffffffffffffffffffffffffffffffffffffffff1681526020019081526020016000208381548110151561300f57fe5b9060005260206000200154905080600660008773ffffffffffffffffffffffffffffffffffffffff1673ffffffffffffffffffffffffffffffffffffffff1681526020019081526020016000208381548110151561306957fe5b9060005260206000200181905550816007600083815260200190815260200160002081905550505b600660008573ffffffffffffffffffffffffffffffffffffffff1673ffffffffffffffffffffffffffffffffffffffff1681526020019081526020016000208054809190600190036130e39190613bc5565b5050505050565b600660008373ffffffffffffffffffffffffffffffffffffffff1673ffffffffffffffffffffffffffffffffffffffff168152602001908152602001600020805490506007600083815260200190815260200160002081905550600660008373ffffffffffffffffffffffffffffffffffffffff1673ffffffffffffffffffffffffffffffffffffffff1681526020019081526020016000208190806001815401808255809150509060018203906000526020600020016000909192909190915055505050565b600073ffffffffffffffffffffffffffffffffffffffff168273ffffffffffffffffffffffffffffffffffffffff1614151515613256576040517f08c379a00000000000000000000000000000000000000000000000000000000081526004018080602001828103825260188152602001807f676976656e206164647265737320697320696e76616c6964000000000000000081525060200191505060405180910390fd5b61325f81612834565b1515156132d4576040517f08c379a00000000000000000000000000000000000000000000000000000000081526004018080602001828103825260168152602001807f746f6b656e496420616c7265616479206578697374730000000000000000000081525060200191505060405180910390fd5b816002600083815260200190815260200160002060006101000a81548173ffffffffffffffffffffffffffffffffffffffff021916908373ffffffffffffffffffffffffffffffffffffffff16021790555061336d600460008473ffffffffffffffffffffffffffffffffffffffff1673ffffffffffffffffffffffffffffffffffffffff1681526020019081526020016000206136af565b808273ffffffffffffffffffffffffffffffffffffffff16600073ffffffffffffffffffffffffffffffffffffffff167fddf252ad1be2c89b69c2b068fc378daa952ba7f163c4a11628f55a4df523b3ef60405160405180910390a45050565b6008805490506009600083815260200190815260200160002081905550600881908060018154018082558091505090600182039060005260206000200160009091929091909150555050565b60606000821415613461576040805190810160405280600181526020017f3000000000000000000000000000000000000000000000000000000000000000815250905061356d565b600082905060005b60008214151561348f578080600101915050600a8281151561348757fe5b049150613469565b6060816040519080825280601f01601f1916602001820160405280156134c45781602001600182028038833980820191505090505b50905060006001830390505b60008614151561356557600a868115156134e657fe5b066030017f01000000000000000000000000000000000000000000000000000000000000000282828060019003935081518110151561352157fe5b9060200101907effffffffffffffffffffffffffffffffffffffffffffffffffffffffffffff1916908160001a905350600a8681151561355d57fe5b0495506134d0565b819450505050505b919050565b60606135b183836020604051908101604052806000815250602060405190810160405280600081525060206040519081016040528060008152506136e7565b905092915050565b600080823b905060008111915050919050565b600073ffffffffffffffffffffffffffffffffffffffff166003600083815260200190815260200160002060009054906101000a900473ffffffffffffffffffffffffffffffffffffffff1673ffffffffffffffffffffffffffffffffffffffff161415156136895760006003600083815260200190815260200160002060006101000a81548173ffffffffffffffffffffffffffffffffffffffff021916908373ffffffffffffffffffffffffffffffffffffffff1602179055505b50565b6136a4600182600001546136c590919063ffffffff16565b816000018190555050565b6001816000016000828254019250508190555050565b60008282111515156136d657600080fd5b600082840390508091505092915050565b6060808690506060869050606086905060608690506060869050606081518351855187518951010101016040519080825280601f01601f1916602001820160405280156137435781602001600182028038833980820191505090505b509050606081905060008090506000809050600090505b885181101561380d57888181518110151561377157fe5b9060200101517f010000000000000000000000000000000000000000000000000000000000000090047f01000000000000000000000000000000000000000000000000000000000000000283838060010194508151811015156137d057fe5b9060200101907effffffffffffffffffffffffffffffffffffffffffffffffffffffffffffff1916908160001a905350808060010191505061375a565b600090505b87518110156138c557878181518110151561382957fe5b9060200101517f010000000000000000000000000000000000000000000000000000000000000090047f010000000000000000000000000000000000000000000000000000000000000002838380600101945081518110151561388857fe5b9060200101907effffffffffffffffffffffffffffffffffffffffffffffffffffffffffffff1916908160001a9053508080600101915050613812565b600090505b865181101561397d5786818151811015156138e157fe5b9060200101517f010000000000000000000000000000000000000000000000000000000000000090047f010000000000000000000000000000000000000000000000000000000000000002838380600101945081518110151561394057fe5b9060200101907effffffffffffffffffffffffffffffffffffffffffffffffffffffffffffff1916908160001a90535080806001019150506138ca565b600090505b8551811015613a3557858181518110151561399957fe5b9060200101517f010000000000000000000000000000000000000000000000000000000000000090047f01000000000000000000000000000000000000000000000000000000000000000283838060010194508151811015156139f857fe5b9060200101907effffffffffffffffffffffffffffffffffffffffffffffffffffffffffffff1916908160001a9053508080600101915050613982565b600090505b8451811015613aed578481815181101515613a5157fe5b9060200101517f010000000000000000000000000000000000000000000000000000000000000090047f0100000000000000000000000000000000000000000000000000000000000000028383806001019450815181101515613ab057fe5b9060200101907effffffffffffffffffffffffffffffffffffffffffffffffffffffffffffff1916908160001a9053508080600101915050613a3a565b82995050505050505050505095945050505050565b60806040519081016040528060001515815260200160008152602001600073ffffffffffffffffffffffffffffffffffffffff1681526020016000151581525090565b828054600181600116156101000203166002900490600052602060002090601f016020900481019282601f10613b8657805160ff1916838001178555613bb4565b82800160010185558215613bb4579182015b82811115613bb3578251825591602001919060010190613b98565b5b509050613bc19190613bf1565b5090565b815481835581811115613bec57818360005260206000209182019101613beb9190613bf1565b5b505050565b613c1391905b80821115613c0f576000816000905550600101613bf7565b5090565b9056fe7265717569726520746f6b656e206973206265696e67207472616e73666572656420746f2076616c69642061646472657373726571756972652074686520746f6b656e20657869737473206265666f72652073657474696e676164647265737320746f206e6f7420626520746865206f776e6572206f662074686520746f6b656e496473656e64657220746f20626520746865206f776e6572206f662074686520636f6e7472616374206f72206973417070726f766564466f72416c6c282920746f206265207472756566726f6d206164647265737320697320746865206f776e6572206f662074686520676976656e20746f6b656ea165627a7a7230582080b0dd8ac914978fa0a083840ba1d55fa158db5db176d806fcb32e4314920a9b002968747470733a2f2f73332d75732d776573742d322e616d617a6f6e6177732e636f6d2f756461636974792d626c6f636b636861696e2f63617073746f6e652f",
  "source": "pragma solidity >=0.4.21 <0.6.0;\n\nimport \"./ERC721Mintable.sol\";\nimport \"./verifier.sol\";\n\ncontract SolnSquareVerifier is ERC721Mintable {\n    using Pairing for *;\n\n    Verifier private verifierContract;\n\n    constructor(\n        address verifierAddress,\n        string memory name,\n        string memory symbol\n    ) public ERC721Mintable(name, symbol) {\n        verifierContract = Verifier(verifierAddress);\n    }\n\n    struct Solution {\n        bool isRegistered;\n        uint256 id;\n        address from;\n        bool isMinted;\n    }\n\n    Solution[] private solutions;\n\n    mapping(bytes32 => Solution) private uniqueSolutions;\n\n    event AddedSolution(address from);\n    event MintedSolution(uint256 id, address from);\n\n    function addSolution(\n        uint256[2] memory a,\n        uint256[2][2] memory b,\n        uint256[2] memory c,\n        uint256[2] memory inputs\n    ) public {\n        bytes32 hashedSolution = keccak256(\n            abi.encodePacked(inputs[0], inputs[1])\n        );\n        require(\n            !uniqueSolutions[hashedSolution].isRegistered,\n            \"Solution was added\"\n        );\n\n        require(\n            verifierContract.verifyTx(a, b, c, inputs),\n            \"Solution was verified fail\"\n        );\n\n        Solution memory sol = Solution(\n            true,\n            solutions.length,\n            msg.sender,\n            false\n        );\n        uniqueSolutions[hashedSolution] = sol;\n        solutions.push(sol);\n\n        emit AddedSolution(sol.from);\n    }\n\n    function mintNewNFT(uint256[2] calldata inputs, address to) external {\n        bytes32 hashedInput = keccak256(abi.encodePacked(inputs[0], inputs[1]));\n\n        Solution storage sol = uniqueSolutions[hashedInput];\n        require(sol.from != address(0x0), \"Solution Not Exist\");\n        require(!sol.isMinted, \"Solution Was Minted\");\n        require(sol.from == msg.sender, \"You did not create this solution\");\n        sol.isMinted = true;\n        super._mint(to, sol.id);\n        setTokenURI(sol.id);\n        emit MintedSolution(sol.id, sol.from);\n    }\n}",
  "sourcePath": "/Users/User/TK/Blockchain-Capstone/eth-contracts/contracts/SolnSquareVerifier.sol",
  "compiler": {
    "name": "solc",
    "version": "0.5.2+commit.1df8f40c.Emscripten.clang"
  },
  "schemaVersion": "3.4.4",
  "updatedAt": "2022-01-04T16:29:41.887Z",
  "networkType": "ethereum",
  "devdoc": {
    "methods": {
      "isApprovedForAll(address,address)": {
        "details": "Tells whether an operator is approved by a given owner",
        "params": {
          "operator": "operator address which you want to query the approval of",
          "owner": "owner address which you want to query the approval of"
        },
        "return": "bool whether the given operator is approved by the given owner"
      },
      "setApprovalForAll(address,bool)": {
        "details": "Sets or unsets the approval of a given operator An operator is allowed to transfer all tokens of the sender on their behalf",
        "params": {
          "approved": "representing the status of the approval to be set",
          "to": "operator address to set the approval"
        }
      },
      "supportsInterface(bytes4)": {
        "details": "implement supportsInterface(bytes4) using a lookup table"
      },
      "tokenByIndex(uint256)": {
        "details": "Gets the token ID at a given index of all the tokens in this contract Reverts if the index is greater or equal to the total number of tokens",
        "params": {
          "index": "uint256 representing the index to be accessed of the tokens list"
        },
        "return": "uint256 token ID at the given index of the tokens list"
      },
      "tokenOfOwnerByIndex(address,uint256)": {
        "details": "Gets the token ID at a given index of the tokens list of the requested owner",
        "params": {
          "index": "uint256 representing the index to be accessed of the requested tokens list",
          "owner": "address owning the tokens list to be accessed"
        },
        "return": "uint256 token ID at the given index of the tokens list owned by the requested address"
      },
      "totalSupply()": {
        "details": "Gets the total amount of tokens stored by the contract",
        "return": "uint256 representing the total amount of tokens"
      }
    }
  },
  "userdoc": {
    "methods": {}
  }
}